:100000000C9463000C94AE0A0C94870A0C94D50AE5
:100010000C94D50A0C94D50A0C948B000C948B008C
:100020000C948B000C948B000C948B000C948B0024
:100030000C948B000C948B000C948B000C948B0014
:100040000C943D0A0C948B000C940B0A0C94E5095B
:100050000C948B000C948B000C948B000C948B00F4
:100060000C944D0B0C948B00000000002400270022
:100070002A0000000008000201000003040700003D
:1000800000000000000000000000230026002900FE
:1000900000000000250028002B00040404040404D0
:1000A0000404020202020202030303030303010227
:1000B00004081020408001020408102001020408F6
:1000C0001020B10C541011241FBECFEFD8E0DEBFBA
:1000D000CDBF24E0A0E0B2E001C01D92AF30B20776
:1000E000E1F712E0A0E0B1E0EAEAFAE202C005902E
:1000F0000D92A030B107D9F710E0C2E6D0E004C0FD
:100100002197FE010E942B13C136D107C9F70E9427
:100110000A0D0C9448150C940000809100029091F7
:1001200001020196909301028093000208950895C0
:1001300008950895AF92BF92CF92DF92EF92FF920F
:100140000F931F93CF93DF936C017B018B01040FFF
:10015000151FEB015E01AE18BF08C017D10759F09B
:100160006991D601ED91FC910190F081E02DC601DD
:100170000995892B79F7C501DF91CF911F910F91D7
:10018000FF90EF90DF90CF90BF90AF900895FC016B
:10019000538D448D252F30E0842F90E0821B930BEC
:1001A000541710F0CF96089501970895FC01918D92
:1001B000828D981761F0A28DAE0FBF2FB11D5D9695
:1001C0008C91928D9F5F9F73928F90E008958FEF37
:1001D0009FEF0895FC01918D828D981731F0828DEB
:1001E000E80FF11D858D90E008958FEF9FEF089542
:1001F000FC01918D228D892F90E0805C9F4F821BA6
:1002000091098F739927089582E193E00E94F80085
:1002100021E0892B09F420E0822F089580E090E00E
:10022000892B29F00E94040181110C94000008958B
:10023000FC01A48DA80FB92FB11DA35ABF4F2C915B
:10024000848D90E001968F739927848FA689B78952
:100250002C93A089B1898C91837080648C93938D49
:10026000848D981306C00288F389E02D80818F7DEC
:1002700080830895EF92FF920F931F93CF93DF93A4
:10028000EC0181E0888F9B8D8C8D98131AC0E889D2
:10029000F989808185FF15C09FB7F894EE89FF89A1
:1002A0006083E889F98980818370806480839FBF3F
:1002B00081E090E0DF91CF911F910F91FF90EF903F
:1002C0000895F62E0B8D10E00F5F1F4F0F7311274F
:1002D000E02E8C8D8E110CC00FB607FCFACFE8898A
:1002E000F989808185FFF5CFCE010E941801F1CFF9
:1002F000EB8DEC0FFD2FF11DE35AFF4FF0829FB7FE
:10030000F8940B8FEA89FB8980818062CFCFCF93ED
:10031000DF93EC01888D8823B9F0AA89BB89E8892D
:10032000F9898C9185FD03C0808186FD0DC00FB6D3
:1003300007FCF7CF8C9185FFF2CF808185FFEDCF51
:10034000CE010E941801E9CFDF91CF91089590E08E
:10035000FC01EE58FF4F2491FC01E255FF4F349110
:10036000FC01E656FF4FE491EE23C9F0222339F059
:10037000233001F1A8F4213019F1223029F1F0E005
:10038000EE0FFF1FE057FF4FA591B4918FB7F89480
:10039000EC91611126C030953E233C938FBF0895A8
:1003A0002730A9F02830C9F0243049F78091800027
:1003B0008F7D03C0809180008F7780938000DFCF96
:1003C00084B58F7784BDDBCF84B58F7DFBCF8091E3
:1003D000B0008F778093B000D2CF8091B0008F7D36
:1003E000F9CF3E2BDACFCF93DF9390E0FC01E255BB
:1003F000FF4F249186569F4FFC0184918823C9F0BA
:1004000090E0880F991FFC01E859FF4FA591B49126
:10041000FC01E057FF4FC591D49161110DC09FB70A
:10042000F8948C91209582238C93888128232883AB
:100430009FBFDF91CF910895623051F49FB7F89438
:100440003C91822F809583238C93E8812E2BEFCFD4
:100450008FB7F894EC912E2B2C938FBFEACF0F938C
:100460001F93CF93DF93EC01162F042F1B821A8268
:1004700088EE93E0A0E0B0E08C839D83AE83BF83E1
:1004800086E191E0998388831F8A1E8A198E188ECF
:100490001B8E1A8E1D8E1C8E6E8D6E7F6D7F6E8FE5
:1004A0006695617081E06827842F0E94A70161E052
:1004B000802F0E94F301802F90E0FC01E255FF4F56
:1004C000E491E88BFC01E656FF4FE491F0E0EE0F7B
:1004D000FF1FE057FF4F859194919A8B898B60E0C5
:1004E000812F0E94F3018E8D81FD04C061E0812F78
:1004F0000E94A7011C87812F90E0FC01E255FF4F6D
:10050000E491ED87FC01E656FF4FE491F0E0EE0F39
:10051000FF1FEA57FF4F859194919F878E87DF9148
:10052000CF911F910F9108953FB7F8948091FD02EC
:100530009091FE02A091FF02B091000326B5A89B06
:1005400005C02F3F19F00196A11DB11D3FBFBA2F65
:10055000A92F982F8827BC01CD01620F711D811D25
:10056000911D42E0660F771F881F991F4A95D1F7AA
:1005700008958F929F92AF92BF92CF92DF92EF92A7
:10058000FF924B015C010E9494026B017C010E946E
:1005900094026C197D098E099F09683E734081059C
:1005A0009105A8F321E0821A9108A108B10888EE0C
:1005B000C80E83E0D81EE11CF11C81149104A10433
:1005C000B10429F7FF90EF90DF90CF90BF90AF90EC
:1005D0009F908F90089508952091100330911103FA
:1005E0002817390771F490910E0380910F03981723
:1005F00041F0E0910E03F0E0E854FD4F808190E07F
:1006000008958FEF9FEF08950895EF92FF920F9353
:100610001F93CF93DF93DC015C96ED90FC905D9788
:10062000E114F10479F481E090E013969C938E93A9
:10063000129790E080E0DF91CF911F910F91FF9092
:10064000EF9008955196ED91FC91529750968C91B0
:100650005097982F90950FB75E962C915E97122F1A
:10066000127021FD6095F8942081112319F1282B37
:100670002083E7012197F1F728E0462F50E03081F1
:1006800060FF1AC0382B3083E7012197F1F7BA01D8
:1006900075956795215089F7112381F08081892311
:1006A00080830FBF5C968D919C910197F1F781E05B
:1006B00090E0C1CF2923DCCF3923E5CF9081892B6E
:1006C000EFCF20911003309111032817390771F4EF
:1006D00080910F0320910E0390E0805C9F4F821B5E
:1006E000910960E470E00E94E112089590E080E0DA
:1006F0000895209110033091110328173907B9F498
:1007000090910E0380910F03981789F0E0910E03EA
:10071000F0E0E854FD4F808120910E0330E02F5F20
:100720003F4F2F73332720930E0390E008958FEFF0
:100730009FEF0895E0911003F0911103E817F90776
:1007400069F4A389B4899C918589809589238C93C8
:10075000109211031092100381E0089580E0089533
:10076000CF93DF93EC011B8E1A8E198E188E1F8A81
:100770001E8A8DE991E09D8F8C8F8C858631E0F506
:100780002DEB30E03F8B2E8B2BE931E0398F288F1A
:100790002CE231E03B8F2A8F90916800883008F47A
:1007A0004EC021E08E3008F420E081E001C0880FC7
:1007B0002A95EAF7892B809368009C852DE630E026
:1007C000983050F02BE630E09E3030F02CE630E0F0
:1007D000963110F030E020E03C8B2B8B292F30E05D
:1007E000983078F581E001C0880F9A95EAF78D8BF3
:1007F0008C8D9D8D0197F1F78A8D9B8D892BE1F072
:100800008091100390911103C817D907A9F00097A0
:1008100011F00E949A038E8D8E7F8E8F10920F039F
:1008200010920E03D0931103C0931003EB89FC893F
:1008300080819D89892B8083DF91CF91089584E009
:10084000B9CF9E3040F42850310981E001C0880FB3
:100850002A95EAF7CCCF2E503109F7CF20914702E5
:10086000260F3327331F21323105ECF420919002FB
:10087000FC0190E080E0243069F082E00895A091CE
:1008800047022191AC01495D5D4FA40FB52FB11D09
:100890002C930196861798F380914702680F609316
:1008A000470280E0089581E008951092900281E06F
:1008B00080938F0210926A0261E082E10E94A70198
:1008C00061E083E10E94A701E9EBF0E080818E7F87
:1008D000808380818D7F808388E48093B80085E465
:1008E0008093BC000895CF93DF9391E0909326020C
:1008F0008823B9F0C091B800D091BA008091BC00B3
:100900008A7B8093BC0060E082E10E94A70160E0E6
:1009100083E10E94A7010E945504D093BA00C093BE
:10092000B800DF91CF910895E0910803809107030B
:10093000E81730F4F0E0EA5FFD4F808190E0089521
:100940008FEF9FEF089590910803809107032FEF99
:100950003FEF981748F4E92FF0E0EA5FFD4F208160
:1009600030E09F5F90930803C901089580910703C9
:1009700090910803891B990B0895CF92DF92EF9213
:10098000FF920F931F93CF93DF937C01CB018A01DA
:1009900020919602222389F0EB016B01C40ED51E33
:1009A000CC15DD0569F06991D701ED91FC910190BD
:1009B000F081E02DC7010995F3CF642F0E942E042A
:1009C000C801DF91CF911F910F91FF90EF90DF90C1
:1009D000CF900895CF93DF931F92CDB7DEB7698391
:1009E000209196022223F9F020910503203258F03D
:1009F00021E030E0FC013383228390E080E00F901F
:100A0000DF91CF91089580910603E82FF0E0E95639
:100A1000FD4F998190838F5F809306038093050338
:100A200081E090E0ECCF61E0CE0101960E942E04BF
:100A3000F7CFCF92DF92EF92FF920F931F93CF9356
:100A4000DF93FC01C48121E020939602C093B7029A
:100A500010920603109205038385682B8FEA93E0BA
:100A60000E94EA04D0910503D13208F092C00E949E
:100A700094026B017C0180919002811165C082E03B
:100A80008093900281E080938F028FEF80938E029B
:100A900010928D02D0938C02A7E9B2E0ECE6F2E06E
:100AA00080E0D81385C010926B0280916B02CC0F4E
:100AB000C82BC0936B0280916A02813009F07CC020
:100AC00010926A020E9494026B017C0180916B0279
:100AD0008093BB008091920290919302A091940226
:100AE000B0919502892B8A2B8B2B99F00E9494024E
:100AF00000919202109193022091940230919502FC
:100B00006C197D098E099F090617170728073907F1
:100B1000E0F18091BC0083FDD9CF85EC8093BC00CF
:100B20000E9494026B017C0180919002823009F452
:100B300045C080918E028F3F61F180918E0280329C
:100B400041F180918E0225C0809192029091930292
:100B5000A0919402B0919502892B8A2B8B2B09F4DA
:100B60008ACF0E94940200919202109193022091E8
:100B70009402309195026C197D098E099F09061720
:100B800017072807390708F076CF809191020E9455
:100B90007304109206031092050310929602DF91DF
:100BA000CF911F910F91FF90EF90DF90CF9008951C
:100BB0009D9191938F5F75CF85EEB0CF809192021A
:100BC00090919302A0919402B0919502892B8A2B67
:100BD0008B2B09F4A9CF0E949402009192021091EC
:100BE000930220919402309195026C197D098E092F
:100BF0009F09061717072807390708F095CFC5CFB3
:100C000090E080E00895CF92DF92EF92FF928FB74D
:100C1000F894C090F902D090FA02E090FB02F090B4
:100C2000FC028FBF8091020290910302A091040206
:100C3000B0910502A7019601281B390B4A0B5B0BEB
:100C4000DA01C901883E9340A105B10520F1609108
:100C5000000270910102072E000C880B990B0E9474
:100C6000751020E030E040EF50E40E9436126093AF
:100C70000A0370930B0380930C0390930D0310925F
:100C8000010210920002C0920202D0920302E0928E
:100C90000402F0920502FF90EF90DF90CF9008954C
:100CA0000F931F93CF938C01C62F0E9419056C2FB1
:100CB0006460C8010E9419056C2F6B7FC8010E94F7
:100CC000190583EC90E00197F1F7CF911F910F91F7
:100CD00008950F931F93CF93DF938C01D62FC42FCA
:100CE000607F642B0E94500680E1D89FB0011124E0
:100CF0006C2BC801DF91CF911F910F910C9450067E
:100D0000CF93DF93CDB7DEB728970FB6F894DEBF49
:100D10000FBECDBF98E0EAE0F1E0DE011196019050
:100D20000D929A95E1F790910704981708F48FEFC8
:100D300090E0880F991F21E030E02C0F3D1F820FBB
:100D4000931FFC016081606840E08FEF93E028967C
:100D50000FB6F894DEBF0FBECDBFDF91CF910C94DC
:100D6000690641E00E94690681E090E00895FB0178
:100D700001900020E9F73197AF01461B570BDC01CA
:100D8000ED91FC910280F381E02D09948F929F9266
:100D9000AF92BF920F931F93CF93DF93CDB7DEB780
:100DA000A1970FB6F894DEBF0FBECDBF19A2423097
:100DB00008F44AE08E010F5D1F4F842E912CB12C58
:100DC000A12CA50194010E94F512E62FB901CA01D8
:100DD000EA3004F5E05DD801EE938D01232B242B3E
:100DE000252B79F790E080E0109729F0BD018FEF77
:100DF00093E00E94B706A1960FB6F894DEBF0FBE2F
:100E0000CDBFDF91CF911F910F91BF90AF909F9079
:100E10008F900895E95CDFCF4F925F926F927F923F
:100E20008F929F92AF92BF92CF92DF92EF92FF92FA
:100E30000F931F93CF936B017C01742EAC019B0128
:100E40000E94DC1264E571E0811126C04601570161
:100E5000E894B7F82FEF3FEF4FE75FE7C501B40124
:100E60000E94DC1281110CC02FEF3FEF4FE75FE7CC
:100E7000C501B4010E946E1068E571E0181664F0B7
:100E80002FEF3FEF4FE75FE4C701B6010E94D71293
:100E90001816ACF46CE571E08FEF93E0CF911F91E1
:100EA0000F91FF90EF90DF90CF90BF90AF909F9009
:100EB0008F907F906F905F904F900C94B7062FEFBC
:100EC0003FEF4FE75FECC701B6010E946E1087FD50
:100ED000E1CF20E030E0A901C701B6010E946E1009
:100EE00010E000E087FF0CC041E06DE28FEF93E07F
:100EF0000E946906F7FAF094F7F8F09401E010E028
:100F0000C0E060E070E080E09FE37C1641F020E00C
:100F100030E040E251E40E943612CF5FF6CFA701E5
:100F200096010E94CA114B015C010E94A8122B017C
:100F30003C014AE00E94C606080F191FCC23C9F1E4
:100F4000C301B2010E9473109B01AC01C501B40141
:100F50000E94C9114B015C0141E06EE28FEF93E00A
:100F60000E9469060F5F1F4FC15018F120E030E06A
:100F700040E251E4C501B4010E94D4102B013C01B0
:100F80000E94A8124B01B12CA12C4AE0C501B4016A
:100F90000E94C606080F191FC501B4010E947310F4
:100FA0009B01AC01C301B2010E94C9114B015C015C
:100FB000DBCFC801CF911F910F91FF90EF90DF9091
:100FC000CF90BF90AF909F908F907F906F905F90E9
:100FD0004F900895CF93DF938091BF039091C0030A
:100FE000892B81F0C091BB03D091BC036CE270E00F
:100FF000CE010E941C15009729F08C1B9D0BDF91E0
:10100000CF9108958FEF9FEFFACFCF93DF93EC014D
:101010008091BB039091BC030097E9F068817981CE
:1010200061157105B1F04091BD035091BE032C8153
:101030003D814217530768F00E9427158C819D81DE
:101040009093C0038093BF031D821C82DF91CF91D8
:1010500008950E94CD13888199819093BC03809359
:10106000BB038A819B819093BE038093BD038C81D7
:101070009D819093C0038093BF03198218821B82C5
:101080001A82E2CFCF93DF93EC0188819981009798
:1010900011F00E94CD13198218821D821C821B82BE
:1010A0001A82DF91CF910895FC0180819181009790
:1010B00011F00C94CD1308950F931F93CF93DF93EA
:1010C000EC0188819981009759F02A813B8126178C
:1010D000370730F081E0DF91CF911F910F91089594
:1010E0008B016F5F7F4F0E945614009759F09983D0
:1010F00088831B830A832C813D81232B59F7FC01B4
:101100001082E8CF80E0E7CFEF92FF920F931F931A
:10111000CF93DF936115710541F480E0DF91CF91AA
:101120001F910F91FF90EF90089541155105B1F077
:101130007B01EC010C811D81040F151FB8010E9479
:101140005C08882351F3288139818C819D81B70106
:10115000820F931F0E9427151D830C8381E0DECF31
:10116000CF93DF93EC01FB01448155816081718154
:101170000E948408811103C0CE010E944208CE0162
:10118000DF91CF910895EF92FF920F931F93CF932A
:10119000DF93EC017B018A01BA010E945C08811196
:1011A0000BC0CE010E944208CE01DF91CF911F916A
:1011B0000F91FF90EF9008951D830C83B7018881F4
:1011C00099810E942715F0CFCF92DF92EF92FF9284
:1011D0000F931F93CF93DF93EC016B017A014617B6
:1011E000570720F48D2D6A01E62EF82E19821882F9
:1011F0001B821A821D821C8250E040E06BEB71E082
:10120000CE010E94C3080091BF031091C003C01615
:10121000D10640F5E016F10608F48701E091BB0322
:10122000F091BC03E00FF11FF08010826091BB03CE
:101230007091BC036C0D7D1D61157105E9F0FB011A
:1012400001900020E9F73197AF01461B570BCE0103
:101250000E94C3088091BB039091BC03080F191F23
:10126000F801F082CE01DF91CF911F910F91FF9095
:10127000EF90DF90CF900895CE010E944208EACF10
:10128000CF93DF93EC01FB018617970749F060814C
:1012900071816115710541F0448155810E94C30837
:1012A000CE01DF91CF9108950E944208F9CFFC0151
:1012B000118210821382128215821482FB01019026
:1012C0000020E9F73197AF01461B570B0C94C30878
:1012D00085ED8093BC008091920290919302A09141
:1012E0009402B09195020796A11DB11D23E0B69519
:1012F000A795979587952A95D1F72091BC0024FD55
:1013000003C010929002089540919202509193026E
:101310006091940270919502452B462B472B69F3FF
:101320000097A105B10541F025E32A95F1F70000EA
:101330000197A109B109E1CF809191020C94730446
:101340000F931F9360E089E00E94A70183E090E083
:101350000197F1F761E089E00E94A70183E290E044
:101360000197F1F760E089E00E94A701E8EBF0E067
:101370006491E4EAF0E0E491F0E0EE0FFF1FEA5739
:10138000FF4F8591949100E412E42FE030E0462F66
:101390000E946C0C611571058105910529F06F5F44
:1013A0007F4F8F4F9F4F9F700E94751028E23EE73E
:1013B0004CE05DE30E94D41020E030E040E05FE3C9
:1013C0000E94D4101F910F9108951F920F920FB693
:1013D0000F9211242F933F934F935F936F937F93BB
:1013E0008F939F93AF93BF93EF93FF9382E193E02B
:1013F0000E941801FF91EF91BF91AF919F918F9142
:101400007F916F915F914F913F912F910F900FBE00
:101410000F901F9018951F920F920FB60F921124E4
:101420002F938F939F93EF93FF93E0912203F0917B
:1014300023038081E0912803F091290382FD1BC0E2
:10144000908180912B038F5F8F7320912C038217E3
:1014500041F0E0912B03F0E0EE5EFC4F958F80931E
:101460002B03FF91EF919F918F912F910F900FBEC2
:101470000F901F9018958081F4CF1F920F920FB696
:101480000F9211242F933F938F939F93AF93BF930A
:101490008091F9029091FA02A091FB02B091FC02B6
:1014A0003091F80223E0230F2D3758F50196A11D46
:1014B000B11D2093F8028093F9029093FA02A09351
:1014C000FB02B093FC028091FD029091FE02A0917C
:1014D000FF02B09100030196A11DB11D8093FD0292
:1014E0009093FE02A093FF02B0930003BF91AF91CF
:1014F0009F918F913F912F910F900FBE0F901F9052
:10150000189526E8230F0296A11DB11DD2CF1F9278
:101510000F920FB60F9211242F933F934F935F9327
:101520006F937F938F939F93AF93BF93EF93FF93AB
:10153000E0910201F09103010995FF91EF91BF91B4
:10154000AF919F918F917F916F915F914F913F915B
:101550002F910F900FBE0F901F9018951F920F9212
:101560000FB60F9211242F933F934F935F936F9376
:101570007F938F939F93AF93BF93EF93FF93E091EC
:101580000001F09101010995FF91EF91BF91AF9199
:101590009F918F917F916F915F914F913F912F918B
:1015A0000F900FBE0F901F9018951F920F920FB6BD
:1015B0000F9211242F933F934F935F936F937F93D9
:1015C0008F939F93AF93BF93EF93FF93E09110039B
:1015D000F0911103309749F0A685B7858585968DE2
:1015E00091FF14C09C918923A1F4FF91EF91BF91C9
:1015F000AF919F918F917F916F915F914F913F91AB
:101600002F910F900FBE0F901F9018959C918923DA
:1016100061F7A389B4899C918589809589238C93EE
:10162000868997890197F1F7608D718DA685B785B9
:10163000558538E020E0CB010197F1F7822F90E04B
:1016400095958795282F4C91452309F020683150B6
:1016500091F7868D81FD209580910F0390E0019692
:101660008F73992730910E03381799F0A0910F03CB
:10167000B0E0A854BD4F2C9380930F03828D938DBF
:101680000197F1F7A389B4898C919589892B8C9363
:10169000ACCF868D8160868FF1CF1F920F920FB6EF
:1016A0000F9211242F933F934F935F936F937F93E8
:1016B0008F939F93AF93BF93EF93FF938091B90064
:1016C000887F803609F44AC0F0F5883209F4A7C053
:1016D00018F5803109F49BC0B8F4882309F4F9C0E7
:1016E000883009F494C0FF91EF91BF91AF919F9121
:1016F0008F917F916F915F914F913F912F910F90BB
:101700000FBE0F901F901895883109F488C0803261
:1017100051F780938E0214C0803409F49DC040F4C8
:101720008033B9F38833F9F680938E0285ECB0C02C
:10173000803509F485C0883509F496C0883499F657
:101740000E946809D0CF883909F48CC038F58837F1
:1017500029F050F4883611F0803729F683E0809321
:1017600090021092690257C0883809F47BC0803912
:1017700019F0803809F0B7CF80916902803208F003
:1017800071C0E091690281E08E0F809369028091BF
:10179000BB00F0E0E75BFD4F80833DC0803B39F04C
:1017A000E0F4803A09F479C0883A09F09CCF84E0EB
:1017B000809390021092480210924702E091030336
:1017C000F091040309958091470281110FC081E0D7
:1017D000809347021092270209C0803C09F4A6CFEB
:1017E000883C09F4A3CF883B09F07DCFE091480203
:1017F00081E08E0F80934802F0E0E95DFD4F80812B
:101800008093BB00909148028091470229C080914B
:101810006B028093BB0085EC8093BC0064CF9091F9
:101820008D0280918C02981758F5E0918D0281E02D
:101830008E0F80938D02F0E0E459FD4F8081E9CF57
:10184000E0918D0281E08E0F80938D028091BB002C
:10185000F0E0E459FD4F808390918D0280918C02DD
:101860009817C8F285E8D8CFE0918D0281E08E0FFD
:1018700080938D028091BB00F0E0E459FD4F80839E
:1018800080918F0281115CCF81E080936A0284EAAB
:101890008093BC001092900226CF85EC8093BC0010
:1018A0001092900280916902803230F4E0916902D6
:1018B000F0E0E75BFD4F10826091690270E0E0911B
:1018C0000103F091020389E492E009951092690204
:1018D0000ACF10928E0234CFCF92DF92EF92FF9216
:1018E0000F931F93E82FF92F05C00150110921090B
:1018F000310961F1908196239417B9F305C0015025
:1019000011092109310911F1908196239413F7CF20
:10191000C12CD12CE12CF12C0AC08FEFC81AD80AA7
:10192000E80AF80A0C151D052E053F0579F080819F
:101930008623841791F36C2D7D2D8E2D9F2D1F9165
:101940000F91FF90EF90DF90CF90089560E070E0EE
:1019500080E090E01F910F91FF90EF90DF90CF908B
:101960000895E2E1F3E01382128288EE93E0A0E0B2
:10197000B0E084839583A683B78328E231E0318386
:10198000208325EC30E03587248724EC30E037874E
:10199000268720EC30E0318B208B21EC30E0338B3C
:1019A000228B22EC30E0358B248B26EC30E0378B19
:1019B000268B118E128E138E148EEFEAF3E01382B3
:1019C000128284839583A683B7838AE391E091830F
:1019D0008083EFEFF3E0138212828CE491E0918335
:1019E000808387E2848380E1818782E08287138617
:1019F00043E062E080EE93E00E942F024CE06BE057
:101A000081EC93E00E942F026BEB71E08BEB93E093
:101A10000C945709CF93DF93CDB7DEB762970FB61B
:101A2000F894DEBF0FBECDBF789484B5826084BDCC
:101A300084B5816084BD85B5826085BD85B58160D2
:101A400085BD80916E00816080936E001092810050
:101A5000809181008260809381008091810081600B
:101A600080938100809180008160809380008091CC
:101A7000B10084608093B1008091B0008160809358
:101A8000B00080917A00846080937A0080917A001F
:101A9000826080937A0080917A00816080937A00DE
:101AA00080917A00806880937A001092C100E09162
:101AB0002203F091230382E08083E0911E03F091E2
:101AC0001F031082E0912003F09121038FEC8083AB
:101AD00010922A03E0912603F091270386E0808389
:101AE000E0912403F0912503808180618083E0915F
:101AF0002403F0912503808188608083E091240392
:101B0000F0912503808180688083E0912403F09127
:101B1000250380818F7D808361E089E00E94F3014D
:101B200060E08AE00E94F30160E084E00E94F3013B
:101B300061E085E00E94F30161E086E00E94F3012C
:101B400061E087E00E94F30162E088E00E94F30117
:101B500010920803109207031092060310920503D7
:101B60000E94550487E990E0909304038093030357
:101B700088E990E09093020380930103109204049B
:101B800080910904823018F098E0909304048093C7
:101B9000070462E370E080E090E00E94B902609187
:101BA0000A048FEF93E00E94190568EE73E080E06D
:101BB00090E00E94B90260E38FEF93E00E9450062C
:101BC0000BE416E4C8010197F1F760E38FEF93E0AF
:101BD0000E945006C8010197F1F760E38FEF93E090
:101BE0000E94500683E592E00197F1F760E28FEFE3
:101BF00093E00E94500660910404606240E08FEF21
:101C000093E00E94690684E08093050440E06CE064
:101C10008FEF93E00E94690640E061E08FEF93E070
:101C20000E9469060BE31FE1C8010197F1F782E00A
:101C30008093060440E066E08FEF93E00E9469061F
:101C400040E062E08FEF93E00E946906C8010197CF
:101C5000F1F788E080930A0460E08FEF93E00E9440
:101C6000190580EE93E00E94B00368EE73E080E017
:101C700090E00E94B90281EC93E00E94B00380E002
:101C80000E94800660E671E08FEF93E00E94B70645
:101C900081E00E94800660E771E08FEF93E00E9490
:101CA000B70660ED77E080E090E00E94B9028BE338
:101CB000E82E8FE1F82E90E0C92E90E0D92E332443
:101CC00033940E94A0094B015C010E94030681EC41
:101CD00093E00E946103181619060CF0C0C081EC55
:101CE00093E00E9479038A3009F0ADC060E871E0AA
:101CF000CE0101960E9457098091BF039091C003C5
:101D0000892B71F06090BB037090BC0369817A816C
:101D1000C3010E942E158C0106191709892B11F495
:101D20000FEF1FEFCE0101960E9454080F3F1F4F87
:101D300009F480C00E94EA074091BF035091C0039C
:101D4000BC016F5F7F4FCE0101960E94E408CE0177
:101D500001960E940508CE0101960E9454080E9437
:101D6000EA078C01AC0170E060E0CE010D960E94A4
:101D7000E4084091BF035091C003B8016F5F7F4FEB
:101D8000CE0101960E94E408CE0101960E9405084A
:101D9000CE0101960E9454080E94EA074091BF03B9
:101DA0005091C003BC016F5F7F4FCE0101960E942E
:101DB000E408CE0101960E940508CE0101960E941A
:101DC00054080E94EA07AC0170E060E0CE0107967B
:101DD0000E94E40867E871E0CE0101960E9457096D
:101DE000BE01635F7F4FCE0101960E94B0088C0157
:101DF00045E050E06CE871E00E948408811103C066
:101E0000C8010E944208BE01695F7F4FC8010E945D
:101E1000B008BC018BEB93E00E944009CE01019613
:101E20000E945408CE0107960E945408CE010D96D8
:101E30000E94540850E040E06BEB71E08BEB93E0C4
:101E40000E94C30844CF89831A8241E050E0BE015A
:101E50006F5F7F4F8BEB93E00E94840838CF0E9426
:101E6000A0092B013C010E94030620E030E040EA7B
:101E700051E4C301B2010E94D712181684F020E089
:101E800030E040E05FE360910A0370910B038091C2
:101E90000C0390910D030E946E1087FFF6C03092E4
:101EA000090361E085E00E94A70161E086E00E94ED
:101EB000A70161E087E00E94A7011A8219821C82B3
:101EC0001B821E821D824CE150E062E971E0CE016E
:101ED00001960E94C3086BEB73E0CE0101960E944D
:101EE000B00818861F821A8619861C861B86BC01BC
:101EF000CE0107960E944009CE0101960E94540827
:101F00001A8219821C821B821E821D82BE01695F99
:101F10007F4FCE0101960E9440096FEA71E080EE8A
:101F200093E00E94B70669EB71E080EE93E00E94B7
:101F3000B70668EE73E080E090E00E94B9026CEBB7
:101F400071E080EE93E00E94B70669EB71E080EEED
:101F500093E00E94B70668EE73E080E090E00E9494
:101F6000B9024D815E8169817A8180EE93E00E94A1
:101F70009A0068EE73E080E090E00E94B9026AE1A6
:101F800080EE93E00E94050368EE73E080E090E04D
:101F90000E94B902CE0101960E945408CE01079614
:101FA0000E9454081A8219821C821B821E821D8282
:101FB0006BEB73E0CE0101960E94400940900A034A
:101FC00050900B0360900C0370900D0340E061E0B3
:101FD0008FEF93E00E946906C7010197F1F780E057
:101FE0000E94800662ED71E08FEF93E00E94B706D9
:101FF00042E0C501B4010E940C076AED71E08FEF69
:1020000093E00E94B70681E00E9480066EED71E0C9
:102010008FEF93E00E94B70642E0C301B2010E9435
:102020000C0765EE71E08FEF93E00E94B706809198
:1020300009038823A1F080E00E9480066CEE71E025
:102040008FEF93E00E94B70681E00E9480064D81E9
:102050005E8169817A818FEF93E00E949A00CE01C0
:1020600001960E94540868EE73E080E090E00E94C0
:10207000B902C114D10409F424CE0E9404018823BA
:1020800009F41FCE0E9400001CCE1092090360E0EC
:1020900085E00E94A70160E086E00E94A70160E061
:1020A00087E00E94A7017ECFCF93DF938BEB93E075
:1020B0000E945408C6E1D1E0D093C203C093C1038B
:1020C00081EC93E00E949A03D093E103C093E00374
:1020D00080EE93E0DF91CF910C949A030E94B010B0
:1020E00008F481E00895E89409C097FB3EF49095C8
:1020F0008095709561957F4F8F4F9F4F9923A9F0E1
:10210000F92F96E9BB279395F6958795779567956F
:10211000B795F111F8CFFAF4BB0F11F460FF1BC0B3
:102120006F5F7F4F8F4F9F4F16C0882311F096E946
:1021300011C0772321F09EE8872F762F05C06623F4
:1021400071F096E8862F70E060E02AF09A95660FAD
:10215000771F881FDAF7880F9695879597F9089566
:10216000990F0008550FAA0BE0E8FEEF16161706A8
:10217000E807F907C0F012161306E407F50798F010
:10218000621B730B840B950B39F40A2661F0232B29
:10219000242B252B21F408950A2609F4A140A695A5
:1021A0008FEF811D811D08950E94E7100C94581136
:1021B0000E944A1138F00E94511120F0952311F02D
:1021C0000C9441110C94471111240C948C110E9411
:1021D000691170F3959FC1F3950F50E0551F629FF1
:1021E000F001729FBB27F00DB11D639FAA27F00D70
:1021F000B11DAA1F649F6627B00DA11D661F829F97
:102200002227B00DA11D621F739FB00DA11D621F7B
:10221000839FA00D611D221F749F3327A00D611D98
:10222000231F849F600D211D822F762F6A2F11247A
:102230009F5750409AF0F1F088234AF0EE0FFF1FAD
:10224000BB1F661F771F881F91505040A9F79E3F04
:10225000510580F00C9441110C948C115F3FE4F314
:10226000983ED4F3869577956795B795F795E7955A
:102270009F5FC1F7FE2B880F911D9695879597F963
:10228000089597F99F6780E870E060E008959FEFF8
:1022900080EC089500240A941616170618060906FD
:1022A000089500240A9412161306140605060895CC
:1022B000092E0394000C11F4882352F0BB0F40F454
:1022C000BF2B11F460FF04C06F5F7F4F8F4F9F4F94
:1022D000089557FD9058440F551F59F05F3F71F016
:1022E0004795880F97FB991F61F09F3F79F087957D
:1022F0000895121613061406551FF2CF4695F1DF06
:1023000008C0161617061806991FF1CF8695710595
:10231000610508940895E894BB2766277727CB01C9
:1023200097F908952F923F924F925F926F927F920A
:102330008F929F92AF92BF92CF92DF92EF92FF92D5
:102340000F931F93CF93DF93CDB7DEB7CA1BDB0B81
:102350000FB6F894DEBF0FBECDBF09942A88398826
:1023600048885F846E847D848C849B84AA84B9842D
:10237000C884DF80EE80FD800C811B81AA81B98139
:10238000CE0FD11D0FB6F894DEBF0FBECDBFED014D
:1023900008955058BB27AA270E94E1110C945811A8
:1023A0000E944A1138F00E94511120F039F49F3FE9
:1023B00019F426F40C9447110EF4E095E7FB0C9405
:1023C0004111E92F0E94691158F3BA176207730788
:1023D0008407950720F079F4A6F50C948B110EF480
:1023E000E0950B2EBA2FA02D0B01B90190010C0125
:1023F000CA01A0011124FF27591B99F0593F50F43D
:10240000503E68F11A16F040A22F232F342F442794
:10241000585FF3CF469537952795A795F04053958C
:10242000C9F77EF41F16BA0B620B730B840BBAF05C
:102430009150A1F0FF0FBB1F661F771F881FC2F7C7
:102440000EC0BA0F621F731F841F48F487957795DB
:102450006795B795F7959E3F08F0B0CF9395880F95
:1024600008F09927EE0F9795879508950E944A12D4
:102470000C9458110E94511158F00E944A1140F0DA
:1024800029F45F3F29F00C94411151110C948C11E7
:102490000C9447110E94691168F39923B1F35523F5
:1024A00091F3951B550BBB27AA2762177307840767
:1024B00038F09F5F5F4F220F331F441FAA1FA9F3FD
:1024C00035D00E2E3AF0E0E832D091505040E695EB
:1024D000001CCAF72BD0FE2F29D0660F771F881F4C
:1024E000BB1F261737074807AB07B0E809F0BB0B3F
:1024F000802DBF01FF2793585F4F3AF09E3F510553
:1025000078F00C9441110C948C115F3FE4F3983EE9
:10251000D4F3869577956795B795F7959F5FC9F73B
:10252000880F911D9695879597F90895E1E0660FBC
:10253000771F881FBB1F621773078407BA0720F035
:10254000621B730B840BBA0BEE1F88F7E09508959E
:102550000E94711188F09F5798F0B92F9927B751B1
:10256000B0F0E1F0660F771F881F991F1AF0BA9537
:10257000C9F714C0B13091F00E948B11B1E00895F9
:102580000C948B11672F782F8827B85F39F0B93FEB
:10259000CCF3869577956795B395D9F73EF49095EA
:1025A0008095709561957F4F8F4F9F4F08950E9442
:1025B000B01008F48FEF08950E94B010880B990BAB
:1025C000089597FB072E16F4009407D077FD09D0E5
:1025D0000E94171307FC05D03EF4909581959F4FFC
:1025E0000895709561957F4F0895A1E21A2EAA1B58
:1025F000BB1BFD010DC0AA1FBB1FEE1FFF1FA217B3
:10260000B307E407F50720F0A21BB30BE40BF50BAF
:10261000661F771F881F991F1A9469F76095709538
:10262000809590959B01AC01BD01CF010895AA1B37
:10263000BB1B51E107C0AA1FBB1FA617B70710F0AD
:10264000A61BB70B881F991F5A95A9F780959095DF
:10265000BC01CD010895EE0FFF1F0590F491E02D10
:1026600009940F931F93CF93DF938230910510F459
:1026700082E090E0E0910D04F0910E0430E020E063
:10268000B0E0A0E0309799F42115310509F44AC073
:10269000281B390B24303105D8F58A819B816115BF
:1026A000710589F1FB0193838283FE0111C0408192
:1026B00051810281138148175907E0F048175907E3
:1026C00099F4109761F012960C93129713961C933D
:1026D0003296CF01DF91CF911F910F910895009312
:1026E0000D0410930E04F4CF2115310551F042175B
:1026F000530738F0A901DB019A01BD01DF01F801A0
:10270000C1CFEF01F9CF90930E0480930D04CDCF8C
:10271000FE01E20FF31F8193919322503109398317
:102720002883D7CF20910B0430910C04232B41F444
:10273000209106013091070130930C0420930B0483
:1027400020910401309105012115310541F42DB787
:102750003EB74091080150910901241B350BE091CF
:102760000B04F0910C04E217F307A0F42E1B3F0BAF
:102770002817390778F0AC014E5F5F4F24173507F3
:1027800048F04E0F5F1F50930C0440930B0481934D
:1027900091939FCFF0E0E0E09CCFCF93DF93009741
:1027A000E9F0FC01329713821282A0910D04B091DE
:1027B0000E04ED0130E020E01097A1F4208131817A
:1027C000820F931F20910B0430910C0428173907B6
:1027D00009F061C0F0930C04E0930B04DF91CF91FA
:1027E0000895EA01CE17DF07E8F54A815B819E0173
:1027F00041155105B1F7E901FB83EA8349915991EC
:10280000C40FD51FEC17FD0761F4808191810296FA
:10281000840F951FE90199838883828193819B832B
:102820008A83F0E0E0E012968D919C9113970097D7
:10283000B9F52D913C911197CD010296820F931F0E
:1028400020910B0430910C042817390739F6309782
:1028500051F510920E0410920D04B0930C04A09345
:102860000B04BCCFD383C28340815181840F951F59
:10287000C817D90761F44E5F5F4F88819981480F6F
:10288000591F518340838A819B81938382832115C1
:10289000310509F0B0CFF0930E04E0930D049ECF04
:1028A000FD01DC01C0CF13821282D7CFB0E0A0E0DF
:1028B000ECE5F4E10C9494118C01009751F4CB01F8
:1028C0000E9431138C01C801CDB7DEB7E0E10C9452
:1028D000B011FC01E60FF71F9C0122503109E217ED
:1028E000F30708F49DC0D901CD91DC911197C6176B
:1028F000D70798F0C530D10530F3CE01049786177D
:10290000970708F3C61BD70B2297C193D1936D93FA
:102910007C93CF010E94CD13D6CF5B01AC1ABD0AC8
:102920004C018C0E9D1EA0910D04B0910E04512CF3
:10293000412CF12CE12C109731F580910B049091F2
:102940000C048815990509F05CC04616570608F076
:1029500058C08091040190910501009741F48DB712
:102960009EB74091080150910901841B950BE8170F
:10297000F90708F055C0F0930C04E0930B04F9013B
:1029800071836083A0CF8D919C91119712966C906A
:10299000129713967C901397A815B90559F56C01F9
:1029A00042E0C40ED11CCA14DB0420F1AC014A1968
:1029B0005B09DA011296159780F062827382518367
:1029C0004083D9016D937C93E114F10471F0D70138
:1029D0001396FC93EE93129776CF22968C0F9D1F41
:1029E000F90191838083F301EFCFF0930E04E0931C
:1029F0000D0469CF4816590608F42C017D01D30156
:102A00009ACFCB010E9431137C01009749F0AE01AF
:102A1000B8010E941315C8010E94CD13870153CF3E
:102A200010E000E050CFFB01DC0102C001900D92EC
:102A300041505040D8F70895FC018191861721F04C
:102A40008823D9F7992708953197CF010895FB017D
:102A5000DC0101900D920020E1F70895FB015191F6
:102A60005523A9F0BF01DC014D9145174111E1F754
:102A700059F4CD010190002049F04D9140154111CC
:102A8000C9F3FB014111EFCF81E090E00197089578
:102A900010E0C2E6D0E004C0FE010E942B13219694
:0A2AA000C336D107C9F7F894FFCF41
:102AAA00EB02EB0200000F0480000000400014005B
:102ABA0054000000000005039A00000604036103A5
:102ACA007903EC02000000003A019A00C70087016E
:102ADA00F800D600EA0000000000EA04BD0400067F
:102AEA000403B604A304940400000000B1069A008B
:102AFA00000699006E616E00696E66006F76660068
:102B0A00447261696E6167652053797374656D00FB
:102B1A00496E697469616C697A696E672E2E2E0036
:102B2A00244750474741004C61743A00204C6F6E6D
:102B3A003A00416C6572743A20426C6F636B61674C
:102B4A00652064657465637465642061742000415E
:102B5A00542B434D47463D31000D0A0041542B4347
:102B6A004D47533D222B31323334353637383930DD
:102B7A00220057617465723A200020636D00466C2A
:102B8A006F773A2000204C2F6D696E00426C6F639C
:102B9A006B61676520446574656374656421000030
:00000001FF
